:1000000031C04BC077C049C048C047C046C045C09A
:1000100044C043C042C041C040C03FC03EC00902CE
:10002000190001010080640904000001FF000000C4
:100030000705810308006412011001000000088117
:10004000179F0C04010002030116035500530042E0
:1000500000740069006E00790053005000490004EC
:100060000309040011241FBECFE5D2E0DEBFCDBFDF
:1000700010E0A0E6B0E0EAE6F4E102C005900D92DF
:10008000A037B107D9F721E0A0E7B0E001C01D9289
:10009000A639B207E1F74CD7E6C9B2CFA82FB92FDE
:1000A00080E090E041E050EA609530E009C02D9199
:1000B00082279795879510F084279527305EC8F39F
:1000C0006F5FA8F30895EADF8D939D930895A6E0EE
:1000D00088279927AA9569F00197E1F3B399FCCF96
:1000E000B39BFECF81E09927A6B3019611F0A871CA
:1000F000D9F70895CF93CFB7CF93C395B39BE9F7C3
:10010000B39B0BC0B39B09C0B39B07C0B39B05C097
:10011000B39B03C0B39B01C0D5C00F92DF93C091C6
:100120006801DD27C159DE4F012EB39B03C0DF916B
:100130000F90E6CF2F930F931F934F932FEF4F6F97
:1001400006B303FB20F95F933F9350E03BE065C0AB
:1001500016B30126502953FDC89556B3012703FB5A
:1001600025F92F7306B3B1F05027102713FB26F99A
:1001700006B22230F0F000C016B3012703FB27F9C6
:100180000126502906B22430E8F54F77206816B3CF
:100190000000F6CF50274F7D206206B2102F0000DE
:1001A00000C006B300265029102713FB26F906B21B
:1001B000E2CF4F7B06B3206400C0DACF012650297E
:1001C000187106B269F14E7F2160012F16B328C065
:1001D000002650294D7F06B22260102F29C001262B
:1001E00050294B7F06B22460012F2DC016B3012683
:1001F0005029477F2860000006B22EC04F7E06B30C
:10020000206130C0422706B34993002650291027A9
:1002100006B24FEF13FB20F9297F16B379F218715C
:1002200059F10126502906B2012703FB21F9237F4A
:1002300006B371F2002650293150D0F006B21027D3
:1002400013FB22F9277E16B351F20126502901270C
:1002500003FB06B223F92F7C49F2000006B31027F6
:1002600013FB24F90026502906B22F7939F270CFFA
:1002700010E21ABF002719C03B503195C31BD04074
:1002800010E21ABF0881033C09F10B34F9F0209108
:1002900066011981110F1213EDCF4A81441F0936EF
:1002A00051F10D3211F0013E29F700936D013F919C
:1002B0005F914F911F910F912F91DF910F90CAB7CE
:1002C000C5FD1BCFCF91CFBFCF91189520916D0168
:1002D000222369F310916B01112379F534307AF1FF
:1002E00030936B0120936701109168013BE0311B53
:1002F0003093680124C000916B010130F4F40AE5E9
:100300004F7049F43091610034FD1AC000936100D0
:10031000CFE4D1E019C030915A0134FD11C00093EF
:100320005A01CBE5D1E010C0052710E000C021C084
:10033000052710E0C89508BB14C03AE501C032EDAE
:10034000032EC0E0D0E032E017B31861C39A08B3BF
:1003500017BB58E120E84FEF20FF052708BB279582
:1003600017951C3F28F700004552B0F720FF0527DE
:10037000279508BB17951C3FB8F629913A9561F768
:10038000077E10916C01110F08BBC250D04011F0D4
:100390001093660110E21ABF086017B3177E402F52
:1003A000477E54E05A95F1F708BB17BB48BB7FCF97
:1003B000CF93DF9360916B01635067FDC9C080915B
:1003C0006801CCE0D0E0C81BD109C159DE4F809153
:1003D00067018D3209F006C1683009F0B7C083ECBF
:1003E00080934F018AE580936100109271003881FB
:1003F000832F807671F0CE01CFD18F3F09F49EC05C
:100400009F819111A1C09E81981708F09DC0892FEE
:100410009BC02A814C81109258019981911117C07B
:100420003F71323051F4413841F490915A0181E0EA
:100430009E3109F080E0809358011092590128E51F
:1004400031E082E030936A0120936901D9CF392FDE
:100450003D7F313089F421110CC0413851F48EE1D7
:10046000913009F48AE580935A018BE480935B0113
:1004700080E028E531E0E6CF953019F420936C0157
:10048000F8CF963009F040C09B81913059F487E352
:1004900090E090936A018093690190E482E19093E7
:1004A0007100AECF923049F48EE190E090936A01F2
:1004B0008093690190E489E1F2CF933019F521111D
:1004C00009C08FE590E090936A018093690190E400
:1004D00084E0E5CF2130B1F0223049F489E490E0A6
:1004E00090936A018093690190E486E1D8CF23302C
:1004F00049F485E690E090936A018093690190E069
:1005000088E0CDCF90E4CBCF983089F0993031F4AA
:1005100020936E019AE590935A01ABCF9A3059F02F
:100520009B3009F0A6CF9BE490935B01F3CF2EE6BE
:1005300031E081E087CF28E531E0FBCF988197FD5E
:100540008E8190E8909371008093600010926B010F
:100550008091610084FF2BC0C0916000CF3F39F1D2
:100560006C2FC93008F068E08C2F861B80936000E8
:1005700080914F0198E8892780934F01CC2359F04F
:100580002091710027FF40C080E591E0A1D0C82FE5
:10059000893008F05EC06C2F80E591E094DDCC5F7F
:1005A000CC3019F08FEF80936000C093610084E13C
:1005B00096B3987149F48150D9F710926C0110925A
:1005C00066019AE590935A01C1E08111C0E09091D3
:1005D0007000C91721F0811108D3C0937000DF911A
:1005E000CF9108958091710087FFB0CFCE01ACD03C
:1005F0008F3F21F48EE180936100A8CF882309F416
:10060000A5CF10926000A2CF8091690190916A01FC
:1006100026FF16C0A0E5B1E0FC01262F34913D93E2
:1006200031962150D9F72FEF260F30E02F5F3F4F43
:10063000820F931F90936A0180936901C62FABCFFD
:10064000DC01E0E5F1E0262F3D9131932150E1F707
:10065000EACF8FEF80936000CEE1A7CFAC9A8BB743
:1006600080628BBFEAE5F1E08BE481838AE58083D9
:100670000895FC01DB01AC014C5F5F4F619128E004
:1006800030E080E890E0762F782309F0C09A7091EE
:100690006400072E00C00000000000000A94D1F79B
:1006A000C29A70916400072E00C000000000000094
:1006B0000A94D1F7990FB1999F5FC098C298869517
:1006C0002150310901F79D934E175F07B9F6089540
:1006D000FF920F931F93CF93DF93F62EEC018C01C3
:1006E000060F111D0C171D0739F48F2DDF91CF91C7
:1006F0001F910F91FF90089580914D0190914E01AF
:100700009C012F5F3F4F30934E0120934D0120916C
:100710004C0127FF02C0880F991F80FD13C0209352
:100720004801292F26952093490196958795809316
:100730004A0164E471E088E491E09BDF8091470125
:100740008993D0CF2860EBCF80913601823119F4A4
:1007500083E18093360181E0089538B3242F2095FA
:10076000232338B3432B680F791F8617970709F4A3
:100770000895FC013191CF0158E048BB330F5A95E1
:1007800000C008F028BB00C0000028BB21F000C05A
:1007900000C000C0F2CFE9CFCF93DF93EC01998185
:1007A00091110BC081E28983D0936A01C0936901E2
:1007B00098E0892FDF91CF910895913039F486B375
:1007C0008883D0936A01C0936901F3CF6A81923024
:1007D00019F468BB90E0EDCF462F477021E030E080
:1007E000042E02C0220F331F0A94E2F7933021F443
:1007F00088B32095282304C0943021F488B3282B93
:1008000028BBE8CF953051F460936400B99887B362
:10081000856287BB88B3887D88BBDCCF963049F47E
:10082000B898C098B998C198BA98C298BD98C59818
:10083000D1CF973051F4BE01CE0102961ADFD0938A
:100840006A01C093690194E0B4CF983019F28C81A9
:10085000EC81FD81F0934E01E0934D01993029F434
:1008600080E280934C019FEFA4CF9B3011F480EA8B
:10087000F8CF9A3011F480E4F4CF9C3011F480EC7E
:10088000F0CF9D3029F487B32095282327BBA2CF32
:100890009E3019F487B3282BF9CF9F3009F56111E9
:1008A00012C08091370187B9A59A369A3699FECF42
:1008B00084B1888385B18983D0936A01C09369012B
:1008C00014BA92E076CF613031F4809137018160C3
:1008D00087B9A29AEACF623041F78FE887B9E5CFAE
:1008E000903161F4B89AB99A8AB5806A8ABD8AB59E
:1008F00083608ABD83B7856083BF6CCF913121F45B
:1009000069BD8C8188BD66CF923109F477CF933170
:1009100009F46ECF943181F486B390E02823392313
:1009200002C0359527954A95E2F72883D0936A014E
:10093000C093690191E03DCF963161F5611106C028
:1009400083B78B7F83BF83B78D7F12C0613049F43B
:1009500083B78B7F83BF83B7826083BF83B78E7F6C
:10096000CBCF623049F483B78B7F83BF83B782607C
:1009700083BF83B78160C0CF633031F483B78460B5
:1009800083BF83B78D7FE9CF643009F023CF83B76E
:100990008460D8CF9F3161F48B8190E0982F8827B5
:1009A000680F792F711D709363006093620012CFFE
:1009B000903219F41ABC13BE0DCF913231F460930A
:1009C0008E0181E08093360105CF923219F485E1E2
:1009D0008883ACCF9332C9F4379A86B19A81892B38
:1009E00086B99B81913059F038F0923009F0F2CEFF
:1009F00080913701806906C010923701DACE80916C
:100A00003701806880933701E5CE983249F485E854
:100A100091E090936A018093690190918D01C9CE14
:100A2000993211F482E0CECF9A3231F483E0809390
:100A3000360160938E01CECE9B3211F484E0C2CF9A
:100A40009C3211F488E0BECF9D3211F489E0EFCFE3
:100A50009E3259F49BE09093360160938E019B8106
:100A600090938F0180939001B5CE9F3259F46130FD
:100A700031F4B89AB99ABA9A60933E01ABCE10920B
:100A80003E01A8CE903341F460933A019B8190934C
:100A90003901809338019ECE913331F470E0709328
:100AA00043016093420196CE923311F485E08ACFE0
:100AB000933321F460938E0186E084CF963371F5F1
:100AC00065FF1BC0E0917400E03CB8F48B81AE2F51
:100AD000B0E0AA58BF4F8C938C81A1E0AE0FB0E07C
:100AE000AA58BF4F8C9383E08E0F809374008D8142
:100AF000EE5FF0E0EA58FF4F80838A8184FF6ACE80
:100B000080917400882309F465CE81E180933601D9
:100B100087B3822B87BB209375005CCE9733A1F4FB
:100B200080916D0090916E0090D480916D009091B5
:100B30006E006B81019689D480916D0090916E005A
:100B40006C81029682D446CE983371F42093730060
:100B5000813408F080E48093720087B3282B27BB90
:100B600082E1809336017FCE892F807F803EE9F439
:100B70008AE080933601892F877080938E01987068
:100B800090938F0120E080918E01281708F022CEEB
:100B9000822F90E00296FE01E80FF91F3081825704
:100BA0009E4FFC0130832F5FEECF803F09F012CEC5
:100BB00087E080933601892F887080938E0197702B
:100BC00090938F0120E080918F01281708F002CECA
:100BD000822F90E00296FE01E80FF91F30818257C4
:100BE0009E4FFC0130832F5FEECFDF92EF92FF929A
:100BF0000F931F93CF93DF9308E010E0C0E0D0E89D
:100C0000DD2EDC0ED1BE63DA7C0184E3E81689E0D8
:100C1000F8060CF4CD2DD6950150110989F78FEF08
:100C20008C0F81BF0C2F10E00F5F1F4F81B7801713
:100C3000110669F064F0C1BF61B790E080E0DF9118
:100C4000CF911F910F91FF90EF90DF90FEC33FDA9D
:100C50008453994097FF03C09195819591098E1512
:100C60009F0514F4C1B77C0181B78F5F81BFDECFD0
:100C7000882331F1B89890E02091420130914301EE
:100C800092171306F8F0BA9890E020914201309143
:100C9000430192171306E0F0BA9A90E020914201C6
:100CA0003091430192171306C8F08111B89A80E081
:100CB000209142013091430182171306A8F0089554
:100CC000B89AD9CF25E02A95F1F700C09F5FD4CF1D
:100CD00025E02A95F1F700C09F5FD7CF25E02A9540
:100CE000F1F700C09F5FDACF95E09A95F1F700C069
:100CF0008F5FDECFB89880E02091420130914301B0
:100D000082171306E8F0BA9880E0209142013091F2
:100D1000430182171306D0F086B390E02091420180
:100D20003091430192171306B8F0BA9A90E02091DF
:100D300042013091430192171306A0F0817008958B
:100D400025E02A95F1F700C08F5FD6CF95E09A9500
:100D5000F1F700C08F5FD9CF25E02A95F1F700C0E9
:100D60009F5FDCCF25E02A95F1F700C09F5FDFCFC2
:100D700088B38A7F88BBBA98B89880E020914201F6
:100D8000309143018217130608F0089595E09A9573
:100D9000F1F700C08F5FF2CF87B38A7F87BB80E017
:100DA00020914201309143018217130698F0B89ABE
:100DB00080E020914201309143018217130680F0B8
:100DC000BA9A80E0209142013091430182171306C4
:100DD00068F0089595E09A95F1F700C08F5FE0CF35
:100DE00095E09A95F1F700C08F5FE3CF95E09A9573
:100DF000F1F700C08F5FE6CFB89A80E02091420102
:100E00003091430182171306E0F0BA9A80E02091F6
:100E100042013091430182171306C8F0BA9880E06E
:100E2000209142013091430182171306B0F0B89827
:100E300080E020914201309143018217130698F01F
:100E4000089595E09A95F1F700C08F5FD7CF95E0B0
:100E50009A95F1F700C08F5FDACF95E09A95F1F798
:100E600000C08F5FDDCF95E09A95F1F700C08F5FEE
:100E7000E0CFCF93DF93D82FC8E08D2F8078F8DEB6
:100E8000DD0FC150D1F7DF91CF9134CF1F93CF93B6
:100E9000DF93182FD8E0C0E0CC0F2CDFC82BD15047
:100EA000D9F780E020914201309143018217130667
:100EB00088F081E0111180E0DBDE80E020914201CA
:100EC000309143018217130658F08C2FDF91CF9198
:100ED0001F91089595E09A95F1F700C08F5FE2CFDA
:100EE00095E09A95F1F700C08F5FE8CF88B39091B5
:100EF0007300892B88BB86E997E00197F1F700C062
:100F0000000098B3809173008095892388BB87E89F
:100F100092E00197F1F700C00895CF93C0E080916F
:100F20007200C81710F0CF910895E0DFCF5FF7CFC0
:100F300080E287BB88BB90E080E07FD28F3F09F0E2
:100F400081BFC0916D00D0916E00CE0176D2082F86
:100F5000CE01019672D2182FCE0102966ED20053A6
:100F60000A3030F410531A3018F480538A3088F065
:100F700065E3CE016AD280916D0090916E0061E3CD
:100F8000019663D280916D0090916E0062E30296AB
:100F90005CD2C0916D00D0916E00CE014ED290E037
:100FA0009093680080936700CE01019646D290E04E
:100FB00090936A0080936900CE0102963ED290E041
:100FC00090936C0080936B00BB9A84E1E2EBF1EFAD
:100FD0003197F1F700C000008150C1F7BB9885E060
:100FE00090E090934301809342011092630010922D
:100FF000620088E19EE00FB6F894A89581BD0FBE0F
:1010000091BD10923D0110923C0110923B01109253
:101010003A01109239011092380110923F0110925A
:1010200036011CDB7894B898C098B998C198BA98E2
:10103000C298BD98C598CAE1D0E41BE100E8A89524
:10104000B7D9E0913601E43108F085C0F0E0E65D03
:10105000F74F099482C012C05CC09AC0C3C0EFC0F1
:1010600002C11FC15FC160C17EC17FC174C073C0B6
:1010700072C071C070C0A9C170C0BBC1B89AB99824
:10108000BA9AC29A1092850180918E018093410193
:101090000093400180914001811102C081E01AC19A
:1010A000C09880E02091620030916300821713069F
:1010B00020F18091410190914001892309F0C09A6B
:1010C000C29880918501880F8093850196B38091A5
:1010D000850196959170890F8093850180E020911C
:1010E0006200309163008217130668F0C29A809103
:1010F0004001869580934001CDCFF5E0FA95F1F758
:1011000000C08F5FCFCF45E04A95F1F700C08F5FF9
:10111000E6CFBA9AC2988BEB97E00197F1F700C03F
:1011200000002FB7F894C29AE0E2F1E03197F1F7AE
:1011300000C0BA9886B391E082FB882780F989279E
:10114000809385012FBFEBE9F6E03197F1F7BA9A6A
:10115000C29A90938D011092360180913E018823AE
:1011600009F46DCF80913F0181114DC180913A0109
:1011700080933D018091390180933C018091380139
:1011800080933B0180913F018F5F80933F0157CF58
:1011900080918E0180934001BA9A88E02FB7F8942D
:1011A000C2989091400190FF13C0F1E2FA95F1F7D7
:1011B000C29AE7E0F1E03197F1F700C000009091AA
:1011C00040019695909340012FBF815039F7C3CFCE
:1011D000E7EFF0E03197F1F70000C29AF7E3FA95F4
:1011E000F1F7EDCF1092850188E0909185019695F9
:1011F00090938501BA9A2FB7F894C29841E24A9524
:10120000F1F7C29A57E35A95F1F7BA9896B392FB61
:10121000992790F9909340012FBFE2EEF0E03197CB
:10122000F1F700C0000090914001992329F09091BE
:1012300085019068909385018150B9F62FCFBA9AB5
:101240009FB7F894C298F1E2FA95F1F7C29A47E392
:101250004A95F1F7BA9886B382FB882780F9809384
:1012600085019FBF1BCFBA9A8FB7F894C29890910F
:101270008E0190FF0CC051E25A95F1F7C29AE7E057
:10128000F1E03197F1F700C000008FBF64CFE7EFC6
:10129000F0E03197F1F70000C29AF7E3FA95F1F721
:1012A000F4CFB99AB898BA9AC29810934101CDB9BF
:1012B00080918E018111C5981092400180918F011B
:1012C000E0914001E81748F080918E018111C59AA4
:1012D0008091400180938D013ECFF0E0E057FE4FBA
:1012E00080818FB9DEB9809141018DB980E0209174
:1012F0006200309163008217130670F0769BF3CF83
:1013000080914001E82FF0E09FB1EB57FE4F9083B2
:101310008F5F80934001D2CF45E04A95F1F700C03E
:101320008F5FE5CF25DD17CF90E080E035DD809140
:101330008E019FDD8093400180938501AFCEEF2D1C
:10134000F0E0E057FE4F808194DD80934001F394FC
:1013500080918E01F81698F380918F0181114CDDF8
:1013600080914001E9CFF12CF3CF80918E01F12CD7
:10137000811113C080918F01F81600F5CF2CD12C6C
:1013800081E084DDF601EB57FE4F8083F394F2CFCA
:1013900081E07CDDF6018083F3948F2D90E0209135
:1013A0008F012150330BAC014B575E4F6A018217FE
:1013B000930774F380E06ADDF601808380919001E9
:1013C00081111ADD80918F0185CF8CE190E1019729
:1013D000F1F700C00000FFB6F8946091740070E06F
:1013E0004091750086E790E0B8D910927400FFBE76
:1013F0004DCFECE1F0E13197F1F700C00000FFB60E
:10140000F8948BDDF4CF90913D01981780F4C0984B
:1014100090913F0180913C01891758F4C1989091B7
:101420003F0180913B01891730F4C298ABCEC09A3E
:10143000EFCFC19AF4CFC29AA5CEE199FECF9FBB60
:101440008EBBE09A99278DB30895262FE199FECFA0
:101450001CBA9FBB8EBB2DBB0FB6F894E29AE19AE3
:0A1460000FBE01960895F894FFCF27
:10146A00FF5A0A000A080335003100320020000042
:00000001FF
